:1000000009C016C015C014C013C012C011C010C062
:100010000FC00EC011241FBECFE9CDBF20E0A0E667
:10002000B0E001C01D92A436B207E1F769D0ACC0C0
:10003000E7CF81EA9FE0B09912C00197E1F7809184
:10004000620090916300C19A019708F0FDCFC198BA
:100050008091600090916100019758F3FDCFC19AA3
:10006000B099FECFC198E5CFCF92DF92EF92FF9289
:10007000CF93DF9382E087BBC09AC19880E090E085
:100080007CD090E08F3F910511F485E090E0909353
:10009000630080936200C0916200D091630068EEBB
:1000A00073E06C1B7D0B80E090E020E630E040E0E8
:1000B00050E028D022E3C22ED12CE12CF12CA70154
:1000C000960139D02F5F3F4F30936100209360003D
:1000D000BE0180E090E020E630E040E050E012D049
:1000E000A701960128D02F5F3F4F309363002093E4
:1000F0006200DF91CF91FF90EF90DF90CF90089555
:10010000B3DF97DFEE27FF27AA27BB2708C0A20F80
:10011000B31FE41FF51F220F331F441F551F969571
:1001200087957795679598F37040A9F7009799F7A9
:10013000BD01CF010895A1E21A2EAA1BBB1BFD0130
:100140000DC0AA1FBB1FEE1FFF1FA217B307E407B6
:10015000F50720F0A21BB30BE40BF50B661F771F0E
:10016000881F991F1A9469F76095709580959095EE
:100170009B01AC01BD01CF010895E199FECF8EBB7B
:0C018000E09A99278DB30895F894FFCF02
:00000001FF
